:100000000C9463000C948B000C948B000C948B006C
:100010000C948B000C948B000C948B000C94370286
:100020000C948B000C948B000C948B000C948B0024
:100030000C948B000C948B000C948B000C948B0014
:100040000C9405030C948B000C94C7040C941505B8
:100050000C948B000C948B000C948B000C948B00F4
:100060000C948B000C948B000000000024002700EF
:100070002A0000000000250028002B0000000000DE
:1000800023002600290004040404040404040202DA
:100090000202020203030303030301020408102007
:1000A0004080010204081020010204081020000012
:1000B0000007000201000003040600000000000029
:1000C00000008D00810611241FBECFEFD8E0DEBFF7
:1000D000CDBF11E0A0E0B1E0ECEEF0E102C0059090
:1000E0000D92AA36B107D9F712E0AAE6B1E001C035
:1000F0001D92A934B107E1F710E0C6ECD0E004C0CE
:100100002297FE010E947008C23CD107C9F70E94E5
:10011000D7060C9474080C94000080E791E06CE022
:100120004BE028EB3BE00E94ED0182E891E06DE0BE
:100130004AE028EB3BE00E94ED01089580915101D7
:1001400060E00E9472048091530160E00E9472049A
:100150008091550160E00E9472048091570160E037
:100160000E94720408958091510161E00E9472041E
:100170008091530160E00E9472048091550160E01B
:100180000E9472048091570161E00E9472040895F8
:100190008091510160E00E9472048091530161E0FE
:1001A0000E9472048091550161E00E947204809166
:1001B000570160E00E94720408958091510161E04E
:1001C0000E9472048091530160E00E947204809149
:1001D000550161E00E9472048091570160E00E9425
:1001E00072040895EF92FF920F931F93CF93DF93C2
:1001F00068EE73E080E090E00E94730380914B0111
:100200000E94110490936B0180936A0180914F01C9
:100210000E94110490936D0180936C0180914D01B7
:100220000E94110490936F0180936E0187E292E027
:1002300060E071E00E94060887E292E062E071E00F
:100240000E94060860916A0170916B0187E292E05A
:100250004AE050E00E94F00787E292E060E071E03F
:100260000E94060887E292E061E171E00E940608C0
:1002700060916C0170916D0187E292E04AE050E07C
:100280000E94F00787E292E060E071E00E940608B9
:1002900087E292E061E271E00E94060860916E01DF
:1002A00070916F0187E292E04AE050E00E94F0070F
:1002B00087E292E060E071E00E94060880916E01A2
:1002C00090916F01892B09F062C080916A01909131
:1002D0006B0120916C0130916D01892B21F0232B52
:1002E00009F44FC051C0232B09F045C062E370E010
:1002F00080E090E00E94730380E791E00E94D502C5
:100300008C0187E292E06FE271E00E940308C8016D
:1003100069E370E00E9438088B0187E292E04AE0CE
:1003200050E00E94F00787E292E06BE371E00E94E8
:10033000060882E891E00E94D5027C0187E292E003
:100340006EE371E00E940308C70169E370E00E9458
:100350003808EB0187E292E04AE050E00E94F007A3
:1003600087E292E06BE371E00E9406080B501040B8
:100370000930110518F40E94B3000BC02B97299780
:1003800018F40E94C80005C00E94DD0002C00E944F
:100390009E00DF91CF911F910F91FF90EF900895F4
:1003A00087E292E040E855E260E070E00E9450058C
:1003B0008091510161E00E9433048091530161E01A
:1003C0000E9433048091550161E00E9433048091C2
:1003D000570161E00E9433040895CF93DF93EC014D
:1003E000862F90E0FC01E656FF4FE491EC83A42FAA
:1003F000B0E0FD01E656FF4FE491ED838A579F4F31
:10040000FC01449150E0440F551FFA01EE58FF4F94
:10041000859194919F838E83AA57BF4FFD0184914C
:10042000E82FF0E0EE0FFF1FE458FF4F8591949105
:100430009B878A87FA01E859FF4F859194919987A4
:100440008887F1E0253F3F0714F024EF31E089E38E
:1004500090E0AC01249FC001259F900D349F900D2A
:1004600011244C969D878C87DF91CF9108951F9220
:100470000F920FB60F9211242F933F934F935F93D8
:100480006F937F938F939F93AF93BF93EF93FF935C
:10049000E0919401F0919501309709F00995FF9151
:1004A000EF91BF91AF919F918F917F916F915F91EC
:1004B0004F913F912F910F900FBE0F901F90189565
:1004C000CF93DF93EC01E885F98580819C81892BAE
:1004D0008083EE81FF8190818C8180958923808348
:1004E00084E090E00E94CC03EE81FF8180819C81BA
:1004F000892B80838AE090E00E94CC03EE81FF810B
:1005000090818C81809589238083E885F98590810D
:100510008C818095892380830E944D03605B794B99
:100520008F4F9F4F6E877F87888B998BEA85FB85DE
:10053000208130E08D8190E028233923232BC9F0DE
:100540000E944D032E853F85488959892617370714
:100550004807590770F0EACF0E944D032E853F856A
:1005600048895989261737074807590710F480E04A
:1005700019C0EA85FB85208130E08D8190E0282339
:100580003923232B49F30E944D032C853D8540E000
:1005900050E0260F371F481F591F2E873F87488B73
:1005A000598B81E0DF91CF910895CF93DF93EC01D8
:1005B0000E946002882361F422C00E944D032E85B0
:1005C0003F85488959892617370748075907B8F0E2
:1005D000EA85FB85208130E08D8190E02823392356
:1005E000232B59F70E944D034C855D8545505040A3
:1005F0002E853F85421B530B460F571F02C040E01C
:1006000050E0CA01DF91CF9108951F920F920FB66B
:100610000F9211242F933F938F939F93AF93BF9388
:1006200080919A0190919B01A0919C01B0919D01B4
:1006300030919E010196A11DB11D232F2D5F2D37F5
:1006400020F02D570196A11DB11D20939E0180938E
:100650009A0190939B01A0939C01B0939D0180917E
:10066000960190919701A0919801B09199010196FE
:10067000A11DB11D8093960190939701A0939801BD
:10068000B0939901BF91AF919F918F913F912F911D
:100690000F900FBE0F901F9018959FB7F894209160
:1006A000960130919701409198015091990186B53A
:1006B000A89B06C08F3F21F02F5F3F4F4F4F5F4FEA
:1006C0009FBF542F432F322F2227280F311D411D4A
:1006D000511D82E0220F331F441F551F8A95D1F709
:1006E000B901CA0108959B01AC017FB7F8948091CC
:1006F000960190919701A0919801B091990166B5EA
:10070000A89B05C06F3F19F00196A11DB11D7FBFC9
:10071000BA2FA92F982F8827860F911DA11DB11DD3
:1007200062E0880F991FAA1FBB1F6A95D1F7BC0111
:100730002DC0FFB7F8948091960190919701A091F8
:100740009801B0919901E6B5A89B05C0EF3F19F05B
:100750000196A11DB11DFFBFBA2FA92F982F882781
:100760008E0F911DA11DB11DE2E0880F991FAA1FD8
:10077000BB1FEA95D1F7861B970B885E9340C8F2A2
:10078000215030404040504068517C4F2115310588
:100790004105510571F60895019739F0880F991FA9
:1007A000880F991F02970197F1F70895789484B5FF
:1007B000826084BD84B5816084BD85B5826085BD5D
:1007C00085B5816085BDEEE6F0E080818160808343
:1007D000E1E8F0E010828081826080838081816026
:1007E0008083E0E8F0E0808181608083E1EBF0E0ED
:1007F000808184608083E0EBF0E080818160808391
:10080000EAE7F0E080818460808380818260808379
:100810008081816080838081806880831092C100A4
:100820000895982F8E3008F09E509770809159014E
:100830008295880F880F807C892B80937C00809123
:100840007A00806480937A0080917A0086FDFCCFE4
:100850002091780040917900942F80E030E0282B9F
:10086000392BC9010895CF93DF93482F50E0CA0177
:1008700086569F4FFC0134914A575F4FFA0184918D
:10088000882369F190E0880F991FFC01E859FF4F18
:10089000A591B491FC01EE58FF4FC591D491662308
:1008A00051F42FB7F8948C91932F909589238C93C2
:1008B000888189230BC0623061F42FB7F8948C9142
:1008C000932F909589238C938881832B88832FBFC6
:1008D00006C09FB7F8948C91832B8C939FBFDF91B8
:1008E000CF910895482F50E0CA0182559F4FFC01D7
:1008F0002491CA0186569F4FFC0194914A575F4F3D
:10090000FA013491332309F440C0222351F12330FA
:1009100071F0243028F42130A1F0223011F514C0F8
:100920002630B1F02730C1F02430D9F404C08091D2
:1009300080008F7703C0809180008F7D809380003E
:1009400010C084B58F7702C084B58F7D84BD09C087
:100950008091B0008F7703C08091B0008F7D80932D
:10096000B000E32FF0E0EE0FFF1FEE58FF4FA59110
:10097000B4912FB7F894662321F48C919095892334
:1009800002C08C91892B8C932FBF089508951F92DC
:100990000F920FB60F9211242F933F934F938F9383
:1009A0009F93EF93FF938091C00082FD1DC0409103
:1009B000C6002091DF013091E0012F5F3F4F2F7380
:1009C00030708091E1019091E2012817390771F0B0
:1009D000E091DF01F091E001E156FE4F408330935A
:1009E000E0012093DF0102C08091C600FF91EF91EA
:1009F0009F918F914F913F912F910F900FBE0F902C
:100A00001F901895E0913302F0913402E05CFF4FA3
:100A10008191919120813181821B930B8F73907012
:100A2000892B11F00E94C60408951F920F920FB6F1
:100A30000F9211242F933F938F939F93EF93FF93E4
:100A40002091230230912402809125029091260268
:100A50002817390731F48091C1008F7D8093C10040
:100A600014C0E0912502F0912602ED51FE4F208145
:100A7000809125029091260201968F739070909339
:100A80002602809325022093C600FF91EF919F914B
:100A90008F913F912F910F900FBE0F901F9018953F
:100AA000AF92BF92DF92EF92FF920F931F93CF937B
:100AB000DF93EC017A018B01DD24403081EE580791
:100AC00080E0680780E0780711F0DD24D39491E09E
:100AD000A92EB12CEC89FD89DD2069F0C50108A0A3
:100AE00002C0880F991F0A94E2F7808360E079E0E2
:100AF0008DE390E005C0108260E874E88EE190E03C
:100B0000A80197010E944C082150304040405040BD
:100B1000569547953795279580E12030380720F086
:100B2000DD2011F0DD24D6CFE889F9893083EA8908
:100B3000FB89208319A2EE89FF89408121E030E002
:100B4000C9010C8C02C0880F991F0A94E2F7482B48
:100B50004083EE89FF894081C9010D8C02C0880F56
:100B6000991F0A94E2F7482B4083EE89FF89408160
:100B7000C9010E8C02C0880F991F0A94E2F7482B16
:100B80004083EE89FF8980810F8C02C0220F331FC2
:100B90000A94E2F7209528232083DF91CF911F91BB
:100BA0000F91FF90EF90DF90BF90AF900895DC0120
:100BB0001C96ED91FC911D97E05CFF4F21913191C6
:100BC00080819181281B390B2F733070C9010895E2
:100BD000DC011C96ED91FC911D97E05CFF4F20819C
:100BE0003181E054F040DF01AE5BBF4F8D919C91AD
:100BF00011972817390719F42FEF3FEF07C08D9190
:100C00009C91E80FF91F8081282F30E0C9010895D9
:100C1000DC011C96ED91FC911D97E05CFF4F20815B
:100C20003181E054F040DF01AE5BBF4F8D919C916C
:100C300011972817390719F42FEF3FEF10C08D9146
:100C40009C911197E80FF91F20818D919C9111972C
:100C500001968F73907011969C938E9330E0C9012A
:100C60000895DC0191968C919197882339F05496E0
:100C7000ED91FC915597808186FFF9CF91961C925A
:100C80000895CF93DF93EC01EE85FF85E05CFF4F85
:100C900020813181E054F0402F5F3F4F2F7330703F
:100CA000DF01AE5BBF4F8D919C91119728173907DB
:100CB000D1F3E05CFF4F80819181E054F040E80F78
:100CC000F91F6083EE85FF85E05CFF4F3183208351
:100CD000EE89FF89208181E090E00F8C02C0880FAF
:100CE000991F0A94E2F7282B208381E089A3EC89DD
:100CF000FD8980818064808381E090E0DF91CF91E5
:100D0000089510922A021092290288EE93E0A0E042
:100D1000B0E080932B0290932C02A0932D02B0930D
:100D20002E028EE591E090932802809327028FE9AE
:100D300091E0909334028093330283EE91E090939C
:100D400036028093350285EC90E0909338028093D0
:100D5000370284EC90E090933A028093390280EC61
:100D600090E090933C0280933B0281EC90E0909362
:100D70003E0280933D0282EC90E09093400280938B
:100D80003F0286EC90E0909342028093410284E01F
:100D90008093430283E08093440287E0809345027E
:100DA00085E08093460281E0809347020895CF93C7
:100DB000DF930E94D6030E94D001C2E0D5E00E94DA
:100DC000F2002097E1F30E940205F9CFCF92DF9263
:100DD000EF92FF920F931F93CF93DF937C016B01F0
:100DE0008A01C0E0D0E00FC0D6016D916D01D7013E
:100DF000ED91FC910190F081E02DC7010995C80F9C
:100E0000D91F015010400115110571F7CE01DF9176
:100E1000CF911F910F91FF90EF90DF90CF900895A9
:100E2000EF92FF920F931F938C01DC01ED91FC91E7
:100E30000190F081E02D6DE009957C01D801ED91E4
:100E4000FC910190F081E02DC8016AE009959C01B8
:100E50002E0D3F1DC9011F910F91FF90EF90089536
:100E6000CF93DF93EC016115710519F420E030E0B8
:100E70000FC0DB010D900020E9F71197A61BB70BFF
:100E8000E881F9810280F381E02DAD0109959C0193
:100E9000C901DF91CF9108954F925F927F928F9217
:100EA0009F92AF92BF92CF92DF92EF92FF920F93F9
:100EB0001F93DF93CF93CDB7DEB7A1970FB6F8940A
:100EC000DEBF0FBECDBF2C01742ECB01223008F443
:100ED0002AE019A231E2C32ED12CCC0EDD1E822EC7
:100EE0009924AA24BB24672D752FA50194010E9483
:100EF0004C0879018A01C801B701A50194010E943B
:100F00001908472D461B0894C108D1084A3014F42B
:100F1000405D01C0495CF6014083E114F104010524
:100F2000110521F07E2C5F2DC801DDCFC201B60175
:100F30000E943007A1960FB6F894DEBF0FBECDBF5A
:100F4000CF91DF911F910F91FF90EF90DF90CF90A5
:100F5000BF90AF909F908F907F905F904F9008953B
:100F6000CF92DF92EF92FF920F931F93CF93DF9375
:100F7000EC016A017B012115310541F4E881F98119
:100F80000190F081E02D642F09951FC02A303105B2
:100F9000D1F477FF17C0E881F9810190F081E02D4D
:100FA0006DE209958C0144275527BA014C195D095A
:100FB0006E097F09CE012AE00E944C079801280F94
:100FC000391F04C02AE00E944C079C01C901DF912F
:100FD000CF911F910F91FF90EF90DF90CF900895E8
:100FE000EF92FF920F931F937B019A010027F7FC6A
:100FF0000095102FB801A7010E94B0071F910F9113
:10100000FF90EF9008950E9430070895EF92FF92AD
:101010000F931F937C010E9430078C01C7010E942F
:101020001007080F191FC8011F910F91FF90EF9033
:101030000895629FD001739FF001829FE00DF11D22
:10104000649FE00DF11D929FF00D839FF00D749F42
:10105000F00D659FF00D9927729FB00DE11DF91FEE
:10106000639FB00DE11DF91FBD01CF01112408954B
:10107000AA1BBB1B51E107C0AA1FBB1FA617B707BE
:1010800010F0A61BB70B881F991F5A95A9F78095DA
:101090009095BC01CD010895A1E21A2EAA1BBB1B9D
:1010A000FD010DC0AA1FBB1FEE1FFF1FA217B30734
:1010B000E407F50720F0A21BB30BE40BF50B661F4A
:1010C000771F881F991F1A9469F76095709580950E
:1010D00090959B01AC01BD01CF010895EE0FFF1F5C
:0C10E0000590F491E02D0994F894FFCFE6
:1010EC0020006C65667420696E70757420697320BD
:1010FC0000726967687420696E707574206973205A
:10110C00006D696420696E707574206973200050DD
:10111C00696E67206C6566743A2000636D005069D7
:10112C006E672072696768743A20000F0010001116
:10113C000002000300060007000100000000410649
:0A114C00E606D7050806E80531069F
:00000001FF
